{
  "contractName": "TikTok",
  "abi": [
    {
      "anonymous": false,
      "inputs": [
        {
          "indexed": false,
          "internalType": "string",
          "name": "_caption",
          "type": "string"
        },
        {
          "indexed": false,
          "internalType": "string",
          "name": "_url",
          "type": "string"
        }
      ],
      "name": "VideoCreation",
      "type": "event"
    },
    {
      "inputs": [
        {
          "internalType": "address",
          "name": "",
          "type": "address"
        },
        {
          "internalType": "uint256",
          "name": "",
          "type": "uint256"
        }
      ],
      "name": "userLiked",
      "outputs": [
        {
          "internalType": "bool",
          "name": "",
          "type": "bool"
        }
      ],
      "stateMutability": "view",
      "type": "function",
      "constant": true
    },
    {
      "inputs": [
        {
          "internalType": "string",
          "name": "_caption",
          "type": "string"
        },
        {
          "internalType": "string",
          "name": "_url",
          "type": "string"
        }
      ],
      "name": "createVideo",
      "outputs": [],
      "stateMutability": "nonpayable",
      "type": "function"
    }
  ],
  "bytecode": "0x608060405234801561001057600080fd5b50610a18806100206000396000f3fe608060405234801561001057600080fd5b50600436106100365760003560e01c80634620c53d1461003b5780636cbb855d1461006b575b600080fd5b610055600480360381019061005091906103a3565b610087565b60405161006291906103fe565b60405180910390f35b6100856004803603810190610080919061055f565b6100b6565b005b60016020528160005260406000206020528060005260406000206000915091509054906101000a900460ff1681565b600360008154809291906100c990610606565b91905055506040518060c0016040528083815260200182815260200160008152602001600081526020013373ffffffffffffffffffffffffffffffffffffffff168152602001600067ffffffffffffffff81111561012a57610129610434565b5b6040519080825280602002602001820160405280156101585781602001602082028036833780820191505090505b50815250600080600354815260200190815260200160002060008201518160000190816101859190610865565b50602082015181600101908161019b9190610865565b50604082015181600201556060820151816003015560808201518160040160006101000a81548173ffffffffffffffffffffffffffffffffffffffff021916908373ffffffffffffffffffffffffffffffffffffffff16021790555060a0820151816005019080519060200190610213929190610254565b509050507ff96ff63043186c3810e5debfc283dd017a7107907191348bc2fd0520fa207b3a82826040516102489291906109ab565b60405180910390a15050565b8280548282559060005260206000209081019282156102cd579160200282015b828111156102cc5782518260006101000a81548173ffffffffffffffffffffffffffffffffffffffff021916908373ffffffffffffffffffffffffffffffffffffffff16021790555091602001919060010190610274565b5b5090506102da91906102de565b5090565b5b808211156102f75760008160009055506001016102df565b5090565b6000604051905090565b600080fd5b600080fd5b600073ffffffffffffffffffffffffffffffffffffffff82169050919050565b600061033a8261030f565b9050919050565b61034a8161032f565b811461035557600080fd5b50565b60008135905061036781610341565b92915050565b6000819050919050565b6103808161036d565b811461038b57600080fd5b50565b60008135905061039d81610377565b92915050565b600080604083850312156103ba576103b9610305565b5b60006103c885828601610358565b92505060206103d98582860161038e565b9150509250929050565b60008115159050919050565b6103f8816103e3565b82525050565b600060208201905061041360008301846103ef565b92915050565b600080fd5b600080fd5b6000601f19601f8301169050919050565b7f4e487b7100000000000000000000000000000000000000000000000000000000600052604160045260246000fd5b61046c82610423565b810181811067ffffffffffffffff8211171561048b5761048a610434565b5b80604052505050565b600061049e6102fb565b90506104aa8282610463565b919050565b600067ffffffffffffffff8211156104ca576104c9610434565b5b6104d382610423565b9050602081019050919050565b82818337600083830152505050565b60006105026104fd846104af565b610494565b90508281526020810184848401111561051e5761051d61041e565b5b6105298482856104e0565b509392505050565b600082601f83011261054657610545610419565b5b81356105568482602086016104ef565b91505092915050565b6000806040838503121561057657610575610305565b5b600083013567ffffffffffffffff8111156105945761059361030a565b5b6105a085828601610531565b925050602083013567ffffffffffffffff8111156105c1576105c061030a565b5b6105cd85828601610531565b9150509250929050565b7f4e487b7100000000000000000000000000000000000000000000000000000000600052601160045260246000fd5b60006106118261036d565b91507fffffffffffffffffffffffffffffffffffffffffffffffffffffffffffffffff8203610643576106426105d7565b5b600182019050919050565b600081519050919050565b7f4e487b7100000000000000000000000000000000000000000000000000000000600052602260045260246000fd5b600060028204905060018216806106a057607f821691505b6020821081036106b3576106b2610659565b5b50919050565b60008190508160005260206000209050919050565b60006020601f8301049050919050565b600082821b905092915050565b60006008830261071b7fffffffffffffffffffffffffffffffffffffffffffffffffffffffffffffffff826106de565b61072586836106de565b95508019841693508086168417925050509392505050565b6000819050919050565b600061076261075d6107588461036d565b61073d565b61036d565b9050919050565b6000819050919050565b61077c83610747565b61079061078882610769565b8484546106eb565b825550505050565b600090565b6107a5610798565b6107b0818484610773565b505050565b5b818110156107d4576107c960008261079d565b6001810190506107b6565b5050565b601f821115610819576107ea816106b9565b6107f3846106ce565b81016020851015610802578190505b61081661080e856106ce565b8301826107b5565b50505b505050565b600082821c905092915050565b600061083c6000198460080261081e565b1980831691505092915050565b6000610855838361082b565b9150826002028217905092915050565b61086e8261064e565b67ffffffffffffffff81111561088757610886610434565b5b6108918254610688565b61089c8282856107d8565b600060209050601f8311600181146108cf57600084156108bd578287015190505b6108c78582610849565b86555061092f565b601f1984166108dd866106b9565b60005b82811015610905578489015182556001820191506020850194506020810190506108e0565b86831015610922578489015161091e601f89168261082b565b8355505b6001600288020188555050505b505050505050565b600082825260208201905092915050565b60005b8381101561096657808201518184015260208101905061094b565b60008484015250505050565b600061097d8261064e565b6109878185610937565b9350610997818560208601610948565b6109a081610423565b840191505092915050565b600060408201905081810360008301526109c58185610972565b905081810360208301526109d98184610972565b9050939250505056fea2646970667358221220f7397dc0186413241a769ffe5eaf4b768cf5d8971c232533c86c478c2af39c3864736f6c63430008100033",
  "immutableReferences": {},
  "source": "// SPDX-License-Identifier: MIT\r\npragma solidity ^0.8.16;\r\n\r\ncontract TikTok {\r\n    struct Video {\r\n        string caption;\r\n        string url;\r\n        uint256 likes;\r\n        uint256 dislikes;\r\n        address owner;\r\n        address[] likedUsers;\r\n    }\r\n\r\n    mapping(uint256 => Video) private videos;\r\n    mapping(address => mapping(uint256 => bool)) public userLiked;\r\n    mapping(uint256 => uint256) private likes;\r\n    uint256 private videoCount;\r\n\r\n    event VideoCreation(string _caption, string _url);\r\n\r\n    function createVideo(string memory _caption, string memory _url) public {\r\n        videoCount++;\r\n        videos[videoCount] = Video(\r\n            _caption,\r\n            _url,\r\n            0,\r\n            0,\r\n            msg.sender,\r\n            new address[](0)\r\n        );\r\n\r\n        emit VideoCreation(_caption, _url);\r\n    }\r\n}\r\n",
  "sourcePath": "D:\\Github\\Web3 Projects\\Clever Programmer Projects\\web3 tiktok by daniel\\web3-tiktok\\contracts\\TikTok.sol",
  "compiler": {
    "name": "solc",
    "version": "0.8.16+commit.07a7930e.Emscripten.clang"
  },
  "schemaVersion": "3.4.9",
  "updatedAt": "2022-12-08T07:12:16.840Z",
  "networkType": "ethereum",
  "devdoc": {
    "kind": "dev",
    "methods": {},
    "version": 1
  },
  "userdoc": {
    "kind": "user",
    "methods": {},
    "version": 1
  }
}